{
  "_format": "hh-sol-artifact-1",
  "contractName": "DucthAuction",
  "sourceName": "contracts/DutchAuction.sol",
  "abi": [
    {
      "inputs": [
        {
          "internalType": "uint256",
          "name": "_startingPrice",
          "type": "uint256"
        },
        {
          "internalType": "uint256",
          "name": "_discountRate",
          "type": "uint256"
        },
        {
          "internalType": "address",
          "name": "_nftContract",
          "type": "address"
        },
        {
          "internalType": "uint256",
          "name": "_nftId",
          "type": "uint256"
        }
      ],
      "stateMutability": "nonpayable",
      "type": "constructor"
    },
    {
      "inputs": [],
      "name": "buyNFt",
      "outputs": [],
      "stateMutability": "payable",
      "type": "function"
    },
    {
      "inputs": [],
      "name": "discountRate",
      "outputs": [
        {
          "internalType": "uint256",
          "name": "",
          "type": "uint256"
        }
      ],
      "stateMutability": "view",
      "type": "function"
    },
    {
      "inputs": [],
      "name": "endAuctionAt",
      "outputs": [
        {
          "internalType": "uint256",
          "name": "",
          "type": "uint256"
        }
      ],
      "stateMutability": "view",
      "type": "function"
    },
    {
      "inputs": [],
      "name": "getPrice",
      "outputs": [
        {
          "internalType": "uint256",
          "name": "",
          "type": "uint256"
        }
      ],
      "stateMutability": "view",
      "type": "function"
    },
    {
      "inputs": [],
      "name": "nftContract",
      "outputs": [
        {
          "internalType": "contract IERC721",
          "name": "",
          "type": "address"
        }
      ],
      "stateMutability": "view",
      "type": "function"
    },
    {
      "inputs": [],
      "name": "nftId",
      "outputs": [
        {
          "internalType": "uint256",
          "name": "",
          "type": "uint256"
        }
      ],
      "stateMutability": "view",
      "type": "function"
    },
    {
      "inputs": [],
      "name": "seller",
      "outputs": [
        {
          "internalType": "address payable",
          "name": "",
          "type": "address"
        }
      ],
      "stateMutability": "view",
      "type": "function"
    },
    {
      "inputs": [],
      "name": "startAuctionAt",
      "outputs": [
        {
          "internalType": "uint256",
          "name": "",
          "type": "uint256"
        }
      ],
      "stateMutability": "view",
      "type": "function"
    },
    {
      "inputs": [],
      "name": "startingPrice",
      "outputs": [
        {
          "internalType": "uint256",
          "name": "",
          "type": "uint256"
        }
      ],
      "stateMutability": "view",
      "type": "function"
    }
  ],
  "bytecode": "0x6101606040523480156200001257600080fd5b5060405162000e3838038062000e388339818101604052810190620000389190620001e0565b3373ffffffffffffffffffffffffffffffffffffffff1660c08173ffffffffffffffffffffffffffffffffffffffff16815250508360e0818152505082610140818152505042610100818152505062093a804262000097919062000281565b610120818152505062093a8083620000b09190620002bc565b841015620000f5576040517f08c379a0000000000000000000000000000000000000000000000000000000008152600401620000ec906200038e565b60405180910390fd5b8173ffffffffffffffffffffffffffffffffffffffff1660808173ffffffffffffffffffffffffffffffffffffffff16815250508060a0818152505050505050620003b0565b600080fd5b6000819050919050565b620001558162000140565b81146200016157600080fd5b50565b60008151905062000175816200014a565b92915050565b600073ffffffffffffffffffffffffffffffffffffffff82169050919050565b6000620001a8826200017b565b9050919050565b620001ba816200019b565b8114620001c657600080fd5b50565b600081519050620001da81620001af565b92915050565b60008060008060808587031215620001fd57620001fc6200013b565b5b60006200020d8782880162000164565b9450506020620002208782880162000164565b93505060406200023387828801620001c9565b9250506060620002468782880162000164565b91505092959194509250565b7f4e487b7100000000000000000000000000000000000000000000000000000000600052601160045260246000fd5b60006200028e8262000140565b91506200029b8362000140565b9250828201905080821115620002b657620002b562000252565b5b92915050565b6000620002c98262000140565b9150620002d68362000140565b9250828202620002e68162000140565b915082820484148315176200030057620002ff62000252565b5b5092915050565b600082825260208201905092915050565b7f5374617274696e67207072696365206973206c657373207468616e204469736360008201527f6f756e7400000000000000000000000000000000000000000000000000000000602082015250565b60006200037660248362000307565b9150620003838262000318565b604082019050919050565b60006020820190508181036000830152620003a98162000367565b9050919050565b60805160a05160c05160e0516101005161012051610140516109f562000443600039600081816104ea01526105da015260008181610237015261056e01526000818161021301526104b901526000818161051801526105b60152600081816101ef01528181610323015261047d015260008181610345015261054a0152600081816102e7015261059201526109f56000f3fe6080604052600436106100865760003560e01c8063c6bc518211610059578063c6bc518214610116578063c741cc2e14610141578063d56d229d1461016c578063d6fbf20214610197578063e6c0e6d5146101c257610086565b806308551a531461008b57806309bb7d66146100b65780638de59217146100e157806398d5fdca146100eb575b600080fd5b34801561009757600080fd5b506100a06101ed565b6040516100ad919061063d565b60405180910390f35b3480156100c257600080fd5b506100cb610211565b6040516100d89190610671565b60405180910390f35b6100e9610235565b005b3480156100f757600080fd5b506101006104b4565b60405161010d9190610671565b60405180910390f35b34801561012257600080fd5b5061012b610548565b6040516101389190610671565b60405180910390f35b34801561014d57600080fd5b5061015661056c565b6040516101639190610671565b60405180910390f35b34801561017857600080fd5b50610181610590565b60405161018e91906106eb565b60405180910390f35b3480156101a357600080fd5b506101ac6105b4565b6040516101b99190610671565b60405180910390f35b3480156101ce57600080fd5b506101d76105d8565b6040516101e49190610671565b60405180910390f35b7f000000000000000000000000000000000000000000000000000000000000000081565b7f000000000000000000000000000000000000000000000000000000000000000081565b7f00000000000000000000000000000000000000000000000000000000000000004210610297576040517f08c379a000000000000000000000000000000000000000000000000000000000815260040161028e90610763565b60405180910390fd5b60006102a16104b4565b90508034116102e5576040517f08c379a00000000000000000000000000000000000000000000000000000000081526004016102dc906107cf565b60405180910390fd5b7f000000000000000000000000000000000000000000000000000000000000000073ffffffffffffffffffffffffffffffffffffffff166323b872dd7f0000000000000000000000000000000000000000000000000000000000000000337f00000000000000000000000000000000000000000000000000000000000000006040518463ffffffff1660e01b815260040161038293929190610831565b600060405180830381600087803b15801561039c57600080fd5b505af11580156103b0573d6000803e3d6000fd5b50505050600081346103c29190610897565b9050600081111561047b5760003373ffffffffffffffffffffffffffffffffffffffff16826040516103f3906108fc565b60006040518083038185875af1925050503d8060008114610430576040519150601f19603f3d011682016040523d82523d6000602084013e610435565b606091505b5050905080610479576040517f08c379a00000000000000000000000000000000000000000000000000000000081526004016104709061095d565b60405180910390fd5b505b7f000000000000000000000000000000000000000000000000000000000000000073ffffffffffffffffffffffffffffffffffffffff16ff5b6000807f0000000000000000000000000000000000000000000000000000000000000000426104e39190610897565b90506000817f0000000000000000000000000000000000000000000000000000000000000000610513919061097d565b9050807f00000000000000000000000000000000000000000000000000000000000000006105419190610897565b9250505090565b7f000000000000000000000000000000000000000000000000000000000000000081565b7f000000000000000000000000000000000000000000000000000000000000000081565b7f000000000000000000000000000000000000000000000000000000000000000081565b7f000000000000000000000000000000000000000000000000000000000000000081565b7f000000000000000000000000000000000000000000000000000000000000000081565b600073ffffffffffffffffffffffffffffffffffffffff82169050919050565b6000610627826105fc565b9050919050565b6106378161061c565b82525050565b6000602082019050610652600083018461062e565b92915050565b6000819050919050565b61066b81610658565b82525050565b60006020820190506106866000830184610662565b92915050565b6000819050919050565b60006106b16106ac6106a7846105fc565b61068c565b6105fc565b9050919050565b60006106c382610696565b9050919050565b60006106d5826106b8565b9050919050565b6106e5816106ca565b82525050565b600060208201905061070060008301846106dc565b92915050565b600082825260208201905092915050565b7f41756374696f6e20656e64730000000000000000000000000000000000000000600082015250565b600061074d600c83610706565b915061075882610717565b602082019050919050565b6000602082019050818103600083015261077c81610740565b9050919050565b7f455448203c2063757272656e7420707269636500000000000000000000000000600082015250565b60006107b9601383610706565b91506107c482610783565b602082019050919050565b600060208201905081810360008301526107e8816107ac565b9050919050565b60006107fa826106b8565b9050919050565b61080a816107ef565b82525050565b600061081b826105fc565b9050919050565b61082b81610810565b82525050565b60006060820190506108466000830186610801565b6108536020830185610822565b6108606040830184610662565b949350505050565b7f4e487b7100000000000000000000000000000000000000000000000000000000600052601160045260246000fd5b60006108a282610658565b91506108ad83610658565b92508282039050818111156108c5576108c4610868565b5b92915050565b600081905092915050565b50565b60006108e66000836108cb565b91506108f1826108d6565b600082019050919050565b6000610907826108d9565b9150819050919050565b7f5472616e73616374696f6e204661696c65640000000000000000000000000000600082015250565b6000610947601283610706565b915061095282610911565b602082019050919050565b600060208201905081810360008301526109768161093a565b9050919050565b600061098882610658565b915061099383610658565b92508282026109a181610658565b915082820484148315176109b8576109b7610868565b5b509291505056fea2646970667358221220fe64346a992efee22d01c2204138f520639f26bf63bbb9498835757a6d7a056b64736f6c63430008110033",
  "linkReferences": {},
  "deployedLinkReferences": {}
}